{
  "_format": "hh-sol-artifact-1",
  "contractName": "PresaleV1",
  "sourceName": "contracts/Presale.sol",
  "abi": [
    {
      "inputs": [],
      "stateMutability": "nonpayable",
      "type": "constructor"
    },
    {
      "inputs": [],
      "name": "EnforcedPause",
      "type": "error"
    },
    {
      "inputs": [],
      "name": "ExpectedPause",
      "type": "error"
    },
    {
      "inputs": [],
      "name": "InvalidInitialization",
      "type": "error"
    },
    {
      "inputs": [],
      "name": "NotInitializing",
      "type": "error"
    },
    {
      "inputs": [
        {
          "internalType": "address",
          "name": "owner",
          "type": "address"
        }
      ],
      "name": "OwnableInvalidOwner",
      "type": "error"
    },
    {
      "inputs": [
        {
          "internalType": "address",
          "name": "account",
          "type": "address"
        }
      ],
      "name": "OwnableUnauthorizedAccount",
      "type": "error"
    },
    {
      "inputs": [],
      "name": "ReentrancyGuardReentrantCall",
      "type": "error"
    },
    {
      "anonymous": false,
      "inputs": [
        {
          "indexed": false,
          "internalType": "uint256",
          "name": "prevValue",
          "type": "uint256"
        },
        {
          "indexed": false,
          "internalType": "uint256",
          "name": "newValue",
          "type": "uint256"
        },
        {
          "indexed": false,
          "internalType": "uint256",
          "name": "timestamp",
          "type": "uint256"
        }
      ],
      "name": "ClaimStartUpdated",
      "type": "event"
    },
    {
      "anonymous": false,
      "inputs": [
        {
          "indexed": false,
          "internalType": "uint64",
          "name": "version",
          "type": "uint64"
        }
      ],
      "name": "Initialized",
      "type": "event"
    },
    {
      "anonymous": false,
      "inputs": [
        {
          "indexed": false,
          "internalType": "uint256",
          "name": "prevValue",
          "type": "uint256"
        },
        {
          "indexed": false,
          "internalType": "uint256",
          "name": "newValue",
          "type": "uint256"
        },
        {
          "indexed": false,
          "internalType": "uint256",
          "name": "timestamp",
          "type": "uint256"
        }
      ],
      "name": "MaxTokensUpdated",
      "type": "event"
    },
    {
      "anonymous": false,
      "inputs": [
        {
          "indexed": true,
          "internalType": "address",
          "name": "previousOwner",
          "type": "address"
        },
        {
          "indexed": true,
          "internalType": "address",
          "name": "newOwner",
          "type": "address"
        }
      ],
      "name": "OwnershipTransferred",
      "type": "event"
    },
    {
      "anonymous": false,
      "inputs": [
        {
          "indexed": false,
          "internalType": "address",
          "name": "account",
          "type": "address"
        }
      ],
      "name": "Paused",
      "type": "event"
    },
    {
      "anonymous": false,
      "inputs": [
        {
          "indexed": false,
          "internalType": "uint256",
          "name": "_start",
          "type": "uint256"
        },
        {
          "indexed": false,
          "internalType": "uint256",
          "name": "_end",
          "type": "uint256"
        },
        {
          "indexed": false,
          "internalType": "uint256",
          "name": "timestamp",
          "type": "uint256"
        }
      ],
      "name": "SaleTimeSet",
      "type": "event"
    },
    {
      "anonymous": false,
      "inputs": [
        {
          "indexed": true,
          "internalType": "bytes32",
          "name": "key",
          "type": "bytes32"
        },
        {
          "indexed": false,
          "internalType": "uint256",
          "name": "prevValue",
          "type": "uint256"
        },
        {
          "indexed": false,
          "internalType": "uint256",
          "name": "newValue",
          "type": "uint256"
        },
        {
          "indexed": false,
          "internalType": "uint256",
          "name": "timestamp",
          "type": "uint256"
        }
      ],
      "name": "SaleTimeUpdated",
      "type": "event"
    },
    {
      "anonymous": false,
      "inputs": [
        {
          "indexed": true,
          "internalType": "address",
          "name": "token",
          "type": "address"
        },
        {
          "indexed": false,
          "internalType": "uint256",
          "name": "noOfTokens",
          "type": "uint256"
        },
        {
          "indexed": false,
          "internalType": "uint256",
          "name": "timestamp",
          "type": "uint256"
        }
      ],
      "name": "TokensAdded",
      "type": "event"
    },
    {
      "anonymous": false,
      "inputs": [
        {
          "indexed": true,
          "internalType": "address",
          "name": "user",
          "type": "address"
        },
        {
          "indexed": true,
          "internalType": "uint256",
          "name": "tokensBought",
          "type": "uint256"
        },
        {
          "indexed": true,
          "internalType": "address",
          "name": "purchaseToken",
          "type": "address"
        },
        {
          "indexed": false,
          "internalType": "uint256",
          "name": "amountPaid",
          "type": "uint256"
        },
        {
          "indexed": false,
          "internalType": "uint256",
          "name": "usdEq",
          "type": "uint256"
        },
        {
          "indexed": false,
          "internalType": "uint256",
          "name": "timestamp",
          "type": "uint256"
        }
      ],
      "name": "TokensBought",
      "type": "event"
    },
    {
      "anonymous": false,
      "inputs": [
        {
          "indexed": true,
          "internalType": "address",
          "name": "user",
          "type": "address"
        },
        {
          "indexed": true,
          "internalType": "uint256",
          "name": "tokensBought",
          "type": "uint256"
        },
        {
          "indexed": true,
          "internalType": "address",
          "name": "purchaseToken",
          "type": "address"
        },
        {
          "indexed": false,
          "internalType": "uint256",
          "name": "amountPaid",
          "type": "uint256"
        },
        {
          "indexed": false,
          "internalType": "uint256",
          "name": "usdEq",
          "type": "uint256"
        },
        {
          "indexed": false,
          "internalType": "uint256",
          "name": "timestamp",
          "type": "uint256"
        }
      ],
      "name": "TokensBoughtAndStaked",
      "type": "event"
    },
    {
      "anonymous": false,
      "inputs": [
        {
          "indexed": true,
          "internalType": "address",
          "name": "user",
          "type": "address"
        },
        {
          "indexed": false,
          "internalType": "uint256",
          "name": "amount",
          "type": "uint256"
        },
        {
          "indexed": false,
          "internalType": "uint256",
          "name": "timestamp",
          "type": "uint256"
        }
      ],
      "name": "TokensClaimed",
      "type": "event"
    },
    {
      "anonymous": false,
      "inputs": [
        {
          "indexed": true,
          "internalType": "address",
          "name": "user",
          "type": "address"
        },
        {
          "indexed": false,
          "internalType": "uint256",
          "name": "amount",
          "type": "uint256"
        },
        {
          "indexed": false,
          "internalType": "uint256",
          "name": "timestamp",
          "type": "uint256"
        }
      ],
      "name": "TokensClaimedAndStaked",
      "type": "event"
    },
    {
      "anonymous": false,
      "inputs": [
        {
          "indexed": false,
          "internalType": "address",
          "name": "account",
          "type": "address"
        }
      ],
      "name": "Unpaused",
      "type": "event"
    },
    {
      "inputs": [],
      "name": "USDTInterface",
      "outputs": [
        {
          "internalType": "contract IERC20",
          "name": "",
          "type": "address"
        }
      ],
      "stateMutability": "view",
      "type": "function"
    },
    {
      "inputs": [],
      "name": "admin",
      "outputs": [
        {
          "internalType": "address",
          "name": "",
          "type": "address"
        }
      ],
      "stateMutability": "view",
      "type": "function"
    },
    {
      "inputs": [],
      "name": "aggregatorInterface",
      "outputs": [
        {
          "internalType": "contract Aggregator",
          "name": "",
          "type": "address"
        }
      ],
      "stateMutability": "view",
      "type": "function"
    },
    {
      "inputs": [],
      "name": "baseDecimals",
      "outputs": [
        {
          "internalType": "uint256",
          "name": "",
          "type": "uint256"
        }
      ],
      "stateMutability": "view",
      "type": "function"
    },
    {
      "inputs": [
        {
          "internalType": "address[]",
          "name": "_usersToBlacklist",
          "type": "address[]"
        }
      ],
      "name": "blacklistUsers",
      "outputs": [],
      "stateMutability": "nonpayable",
      "type": "function"
    },
    {
      "inputs": [
        {
          "internalType": "address",
          "name": "_user",
          "type": "address"
        },
        {
          "internalType": "uint256",
          "name": "_amount",
          "type": "uint256"
        },
        {
          "internalType": "bool",
          "name": "stake",
          "type": "bool"
        }
      ],
      "name": "buyWithETHWert",
      "outputs": [
        {
          "internalType": "bool",
          "name": "",
          "type": "bool"
        }
      ],
      "stateMutability": "payable",
      "type": "function"
    },
    {
      "inputs": [
        {
          "internalType": "uint256",
          "name": "amount",
          "type": "uint256"
        },
        {
          "internalType": "bool",
          "name": "stake",
          "type": "bool"
        }
      ],
      "name": "buyWithEth",
      "outputs": [
        {
          "internalType": "bool",
          "name": "",
          "type": "bool"
        }
      ],
      "stateMutability": "payable",
      "type": "function"
    },
    {
      "inputs": [
        {
          "internalType": "uint256",
          "name": "amount",
          "type": "uint256"
        },
        {
          "internalType": "bool",
          "name": "stake",
          "type": "bool"
        }
      ],
      "name": "buyWithUSDT",
      "outputs": [
        {
          "internalType": "bool",
          "name": "",
          "type": "bool"
        }
      ],
      "stateMutability": "nonpayable",
      "type": "function"
    },
    {
      "inputs": [
        {
          "internalType": "uint256",
          "name": "_amount",
          "type": "uint256"
        }
      ],
      "name": "calculatePrice",
      "outputs": [
        {
          "internalType": "uint256",
          "name": "",
          "type": "uint256"
        }
      ],
      "stateMutability": "view",
      "type": "function"
    },
    {
      "inputs": [
        {
          "internalType": "uint256",
          "name": "_claimStart",
          "type": "uint256"
        }
      ],
      "name": "changeClaimStart",
      "outputs": [
        {
          "internalType": "bool",
          "name": "",
          "type": "bool"
        }
      ],
      "stateMutability": "nonpayable",
      "type": "function"
    },
    {
      "inputs": [
        {
          "internalType": "uint256",
          "name": "_maxTokensToBuy",
          "type": "uint256"
        }
      ],
      "name": "changeMaxTokensToBuy",
      "outputs": [],
      "stateMutability": "nonpayable",
      "type": "function"
    },
    {
      "inputs": [
        {
          "internalType": "address",
          "name": "_newPaymentWallet",
          "type": "address"
        }
      ],
      "name": "changePaymentWallet",
      "outputs": [],
      "stateMutability": "nonpayable",
      "type": "function"
    },
    {
      "inputs": [
        {
          "internalType": "uint256[][3]",
          "name": "_rounds",
          "type": "uint256[][3]"
        }
      ],
      "name": "changeRoundsData",
      "outputs": [],
      "stateMutability": "nonpayable",
      "type": "function"
    },
    {
      "inputs": [
        {
          "internalType": "uint256",
          "name": "_startTime",
          "type": "uint256"
        },
        {
          "internalType": "uint256",
          "name": "_endTime",
          "type": "uint256"
        }
      ],
      "name": "changeSaleTimes",
      "outputs": [],
      "stateMutability": "nonpayable",
      "type": "function"
    },
    {
      "inputs": [],
      "name": "checkPoint",
      "outputs": [
        {
          "internalType": "uint256",
          "name": "",
          "type": "uint256"
        }
      ],
      "stateMutability": "view",
      "type": "function"
    },
    {
      "inputs": [],
      "name": "claim",
      "outputs": [
        {
          "internalType": "bool",
          "name": "",
          "type": "bool"
        }
      ],
      "stateMutability": "nonpayable",
      "type": "function"
    },
    {
      "inputs": [],
      "name": "claimAndStake",
      "outputs": [
        {
          "internalType": "bool",
          "name": "",
          "type": "bool"
        }
      ],
      "stateMutability": "nonpayable",
      "type": "function"
    },
    {
      "inputs": [],
      "name": "claimStart",
      "outputs": [
        {
          "internalType": "uint256",
          "name": "",
          "type": "uint256"
        }
      ],
      "stateMutability": "view",
      "type": "function"
    },
    {
      "inputs": [],
      "name": "currentStep",
      "outputs": [
        {
          "internalType": "uint256",
          "name": "",
          "type": "uint256"
        }
      ],
      "stateMutability": "view",
      "type": "function"
    },
    {
      "inputs": [],
      "name": "dynamicTimeFlag",
      "outputs": [
        {
          "internalType": "bool",
          "name": "",
          "type": "bool"
        }
      ],
      "stateMutability": "view",
      "type": "function"
    },
    {
      "inputs": [],
      "name": "endTime",
      "outputs": [
        {
          "internalType": "uint256",
          "name": "",
          "type": "uint256"
        }
      ],
      "stateMutability": "view",
      "type": "function"
    },
    {
      "inputs": [
        {
          "internalType": "uint256",
          "name": "amount",
          "type": "uint256"
        }
      ],
      "name": "ethBuyHelper",
      "outputs": [
        {
          "internalType": "uint256",
          "name": "ethAmount",
          "type": "uint256"
        }
      ],
      "stateMutability": "view",
      "type": "function"
    },
    {
      "inputs": [],
      "name": "getLatestPrice",
      "outputs": [
        {
          "internalType": "uint256",
          "name": "",
          "type": "uint256"
        }
      ],
      "stateMutability": "view",
      "type": "function"
    },
    {
      "inputs": [
        {
          "internalType": "address",
          "name": "",
          "type": "address"
        }
      ],
      "name": "hasClaimed",
      "outputs": [
        {
          "internalType": "bool",
          "name": "",
          "type": "bool"
        }
      ],
      "stateMutability": "view",
      "type": "function"
    },
    {
      "inputs": [],
      "name": "incrementCurrentStep",
      "outputs": [],
      "stateMutability": "nonpayable",
      "type": "function"
    },
    {
      "inputs": [
        {
          "internalType": "address",
          "name": "_oracle",
          "type": "address"
        },
        {
          "internalType": "address",
          "name": "_usdt",
          "type": "address"
        },
        {
          "internalType": "uint256",
          "name": "_startTime",
          "type": "uint256"
        },
        {
          "internalType": "uint256",
          "name": "_endTime",
          "type": "uint256"
        },
        {
          "internalType": "uint256[][3]",
          "name": "_rounds",
          "type": "uint256[][3]"
        },
        {
          "internalType": "uint256",
          "name": "_maxTokensToBuy",
          "type": "uint256"
        },
        {
          "internalType": "address",
          "name": "_paymentWallet",
          "type": "address"
        }
      ],
      "name": "initialize",
      "outputs": [],
      "stateMutability": "nonpayable",
      "type": "function"
    },
    {
      "inputs": [
        {
          "internalType": "address",
          "name": "",
          "type": "address"
        }
      ],
      "name": "isBlacklisted",
      "outputs": [
        {
          "internalType": "bool",
          "name": "",
          "type": "bool"
        }
      ],
      "stateMutability": "view",
      "type": "function"
    },
    {
      "inputs": [
        {
          "internalType": "address",
          "name": "",
          "type": "address"
        }
      ],
      "name": "isWhitelisted",
      "outputs": [
        {
          "internalType": "bool",
          "name": "",
          "type": "bool"
        }
      ],
      "stateMutability": "view",
      "type": "function"
    },
    {
      "inputs": [],
      "name": "maxTokensToBuy",
      "outputs": [
        {
          "internalType": "uint256",
          "name": "",
          "type": "uint256"
        }
      ],
      "stateMutability": "view",
      "type": "function"
    },
    {
      "inputs": [],
      "name": "owner",
      "outputs": [
        {
          "internalType": "address",
          "name": "",
          "type": "address"
        }
      ],
      "stateMutability": "view",
      "type": "function"
    },
    {
      "inputs": [],
      "name": "pause",
      "outputs": [],
      "stateMutability": "nonpayable",
      "type": "function"
    },
    {
      "inputs": [],
      "name": "paused",
      "outputs": [
        {
          "internalType": "bool",
          "name": "",
          "type": "bool"
        }
      ],
      "stateMutability": "view",
      "type": "function"
    },
    {
      "inputs": [],
      "name": "paymentWallet",
      "outputs": [
        {
          "internalType": "address",
          "name": "",
          "type": "address"
        }
      ],
      "stateMutability": "view",
      "type": "function"
    },
    {
      "inputs": [
        {
          "internalType": "uint256",
          "name": "",
          "type": "uint256"
        }
      ],
      "name": "percentages",
      "outputs": [
        {
          "internalType": "uint256",
          "name": "",
          "type": "uint256"
        }
      ],
      "stateMutability": "view",
      "type": "function"
    },
    {
      "inputs": [
        {
          "internalType": "uint256",
          "name": "",
          "type": "uint256"
        }
      ],
      "name": "prevCheckpoints",
      "outputs": [
        {
          "internalType": "uint256",
          "name": "",
          "type": "uint256"
        }
      ],
      "stateMutability": "view",
      "type": "function"
    },
    {
      "inputs": [
        {
          "internalType": "uint256",
          "name": "",
          "type": "uint256"
        }
      ],
      "name": "remainingTokensTracker",
      "outputs": [
        {
          "internalType": "uint256",
          "name": "",
          "type": "uint256"
        }
      ],
      "stateMutability": "view",
      "type": "function"
    },
    {
      "inputs": [
        {
          "internalType": "address[]",
          "name": "_userToRemoveFromBlacklist",
          "type": "address[]"
        }
      ],
      "name": "removeFromBlacklist",
      "outputs": [],
      "stateMutability": "nonpayable",
      "type": "function"
    },
    {
      "inputs": [
        {
          "internalType": "address[]",
          "name": "_userToRemoveFromWhitelist",
          "type": "address[]"
        }
      ],
      "name": "removeFromWhitelist",
      "outputs": [],
      "stateMutability": "nonpayable",
      "type": "function"
    },
    {
      "inputs": [
        {
          "internalType": "address[]",
          "name": "_addressesToRemoveFromWhitelist",
          "type": "address[]"
        }
      ],
      "name": "removeFromWhitelistForWERT",
      "outputs": [],
      "stateMutability": "nonpayable",
      "type": "function"
    },
    {
      "inputs": [],
      "name": "renounceOwnership",
      "outputs": [],
      "stateMutability": "nonpayable",
      "type": "function"
    },
    {
      "inputs": [
        {
          "internalType": "uint256",
          "name": "_no",
          "type": "uint256"
        }
      ],
      "name": "roundDetails",
      "outputs": [
        {
          "internalType": "uint256[]",
          "name": "",
          "type": "uint256[]"
        }
      ],
      "stateMutability": "view",
      "type": "function"
    },
    {
      "inputs": [
        {
          "internalType": "uint256",
          "name": "",
          "type": "uint256"
        },
        {
          "internalType": "uint256",
          "name": "",
          "type": "uint256"
        }
      ],
      "name": "rounds",
      "outputs": [
        {
          "internalType": "uint256",
          "name": "",
          "type": "uint256"
        }
      ],
      "stateMutability": "view",
      "type": "function"
    },
    {
      "inputs": [],
      "name": "saleToken",
      "outputs": [
        {
          "internalType": "address",
          "name": "",
          "type": "address"
        }
      ],
      "stateMutability": "view",
      "type": "function"
    },
    {
      "inputs": [
        {
          "internalType": "address",
          "name": "_admin",
          "type": "address"
        }
      ],
      "name": "setAdmin",
      "outputs": [],
      "stateMutability": "nonpayable",
      "type": "function"
    },
    {
      "inputs": [
        {
          "internalType": "bool",
          "name": "_status",
          "type": "bool"
        }
      ],
      "name": "setClaimWhitelistStatus",
      "outputs": [],
      "stateMutability": "nonpayable",
      "type": "function"
    },
    {
      "inputs": [
        {
          "internalType": "uint256",
          "name": "_step",
          "type": "uint256"
        },
        {
          "internalType": "uint256",
          "name": "_checkpoint",
          "type": "uint256"
        }
      ],
      "name": "setCurrentStep",
      "outputs": [],
      "stateMutability": "nonpayable",
      "type": "function"
    },
    {
      "inputs": [
        {
          "internalType": "bool",
          "name": "_dynamicTimeFlag",
          "type": "bool"
        }
      ],
      "name": "setDynamicTimeFlag",
      "outputs": [],
      "stateMutability": "nonpayable",
      "type": "function"
    },
    {
      "inputs": [
        {
          "internalType": "uint256[]",
          "name": "_unsoldTokens",
          "type": "uint256[]"
        }
      ],
      "name": "setRemainingTokensArray",
      "outputs": [],
      "stateMutability": "nonpayable",
      "type": "function"
    },
    {
      "inputs": [
        {
          "internalType": "address[]",
          "name": "_wallets",
          "type": "address[]"
        },
        {
          "internalType": "uint256[]",
          "name": "_percentages",
          "type": "uint256[]"
        }
      ],
      "name": "setSplits",
      "outputs": [],
      "stateMutability": "nonpayable",
      "type": "function"
    },
    {
      "inputs": [
        {
          "internalType": "bool",
          "name": "_status",
          "type": "bool"
        }
      ],
      "name": "setStakeingWhitelistStatus",
      "outputs": [],
      "stateMutability": "nonpayable",
      "type": "function"
    },
    {
      "inputs": [
        {
          "internalType": "address",
          "name": "_stakingManagerAddress",
          "type": "address"
        }
      ],
      "name": "setStakingManager",
      "outputs": [],
      "stateMutability": "nonpayable",
      "type": "function"
    },
    {
      "inputs": [
        {
          "internalType": "uint256",
          "name": "_timeConstant",
          "type": "uint256"
        }
      ],
      "name": "setTimeConstant",
      "outputs": [],
      "stateMutability": "nonpayable",
      "type": "function"
    },
    {
      "inputs": [],
      "name": "stakeingWhitelistStatus",
      "outputs": [
        {
          "internalType": "bool",
          "name": "",
          "type": "bool"
        }
      ],
      "stateMutability": "view",
      "type": "function"
    },
    {
      "inputs": [],
      "name": "stakingManagerInterface",
      "outputs": [
        {
          "internalType": "contract StakingManager",
          "name": "",
          "type": "address"
        }
      ],
      "stateMutability": "view",
      "type": "function"
    },
    {
      "inputs": [
        {
          "internalType": "uint256",
          "name": "_claimStart",
          "type": "uint256"
        },
        {
          "internalType": "uint256",
          "name": "noOfTokens",
          "type": "uint256"
        },
        {
          "internalType": "address",
          "name": "_saleToken",
          "type": "address"
        },
        {
          "internalType": "address",
          "name": "_stakingManagerAddress",
          "type": "address"
        }
      ],
      "name": "startClaim",
      "outputs": [
        {
          "internalType": "bool",
          "name": "",
          "type": "bool"
        }
      ],
      "stateMutability": "nonpayable",
      "type": "function"
    },
    {
      "inputs": [],
      "name": "startTime",
      "outputs": [
        {
          "internalType": "uint256",
          "name": "",
          "type": "uint256"
        }
      ],
      "stateMutability": "view",
      "type": "function"
    },
    {
      "inputs": [],
      "name": "timeConstant",
      "outputs": [
        {
          "internalType": "uint256",
          "name": "",
          "type": "uint256"
        }
      ],
      "stateMutability": "view",
      "type": "function"
    },
    {
      "inputs": [],
      "name": "totalBoughtAndStaked",
      "outputs": [
        {
          "internalType": "uint256",
          "name": "",
          "type": "uint256"
        }
      ],
      "stateMutability": "view",
      "type": "function"
    },
    {
      "inputs": [],
      "name": "totalTokensSold",
      "outputs": [
        {
          "internalType": "uint256",
          "name": "",
          "type": "uint256"
        }
      ],
      "stateMutability": "view",
      "type": "function"
    },
    {
      "inputs": [],
      "name": "trackRemainingTokens",
      "outputs": [
        {
          "internalType": "uint256[]",
          "name": "",
          "type": "uint256[]"
        }
      ],
      "stateMutability": "view",
      "type": "function"
    },
    {
      "inputs": [
        {
          "internalType": "address",
          "name": "newOwner",
          "type": "address"
        }
      ],
      "name": "transferOwnership",
      "outputs": [],
      "stateMutability": "nonpayable",
      "type": "function"
    },
    {
      "inputs": [],
      "name": "unpause",
      "outputs": [],
      "stateMutability": "nonpayable",
      "type": "function"
    },
    {
      "inputs": [
        {
          "internalType": "address[]",
          "name": "_users",
          "type": "address[]"
        },
        {
          "internalType": "uint256[]",
          "name": "_userDeposits",
          "type": "uint256[]"
        }
      ],
      "name": "updateFromBSC",
      "outputs": [],
      "stateMutability": "nonpayable",
      "type": "function"
    },
    {
      "inputs": [],
      "name": "usdRaised",
      "outputs": [
        {
          "internalType": "uint256",
          "name": "",
          "type": "uint256"
        }
      ],
      "stateMutability": "view",
      "type": "function"
    },
    {
      "inputs": [
        {
          "internalType": "uint256",
          "name": "amount",
          "type": "uint256"
        }
      ],
      "name": "usdtBuyHelper",
      "outputs": [
        {
          "internalType": "uint256",
          "name": "usdPrice",
          "type": "uint256"
        }
      ],
      "stateMutability": "view",
      "type": "function"
    },
    {
      "inputs": [
        {
          "internalType": "address",
          "name": "",
          "type": "address"
        }
      ],
      "name": "userDeposits",
      "outputs": [
        {
          "internalType": "uint256",
          "name": "",
          "type": "uint256"
        }
      ],
      "stateMutability": "view",
      "type": "function"
    },
    {
      "inputs": [
        {
          "internalType": "uint256",
          "name": "",
          "type": "uint256"
        }
      ],
      "name": "wallets",
      "outputs": [
        {
          "internalType": "address",
          "name": "",
          "type": "address"
        }
      ],
      "stateMutability": "view",
      "type": "function"
    },
    {
      "inputs": [
        {
          "internalType": "address",
          "name": "",
          "type": "address"
        }
      ],
      "name": "wertWhitelisted",
      "outputs": [
        {
          "internalType": "bool",
          "name": "",
          "type": "bool"
        }
      ],
      "stateMutability": "view",
      "type": "function"
    },
    {
      "inputs": [],
      "name": "whitelistClaimOnly",
      "outputs": [
        {
          "internalType": "bool",
          "name": "",
          "type": "bool"
        }
      ],
      "stateMutability": "view",
      "type": "function"
    },
    {
      "inputs": [
        {
          "internalType": "address[]",
          "name": "_usersToWhitelist",
          "type": "address[]"
        }
      ],
      "name": "whitelistUsers",
      "outputs": [],
      "stateMutability": "nonpayable",
      "type": "function"
    },
    {
      "inputs": [
        {
          "internalType": "address[]",
          "name": "_addressesToWhitelist",
          "type": "address[]"
        }
      ],
      "name": "whitelistUsersForWERT",
      "outputs": [],
      "stateMutability": "nonpayable",
      "type": "function"
    }
  ],
  "bytecode": "0x60806040523480156200001157600080fd5b507ff0c57e16840df040f15088dc2f81fe391c3923bec73e23a9662efc9c229c6a00805468010000000000000000810460ff1615906001600160401b03166000811580156200005d5750825b90506000826001600160401b031660011480156200007a5750303b155b90508115801562000089575080155b15620000a85760405163f92ee8a960e01b815260040160405180910390fd5b84546001600160401b03191660011785558315620000d757845460ff60401b1916680100000000000000001785555b83156200011e57845460ff60401b19168555604051600181527fc7f505b2f371ae2175ee4913f4499e1f2633a7b5936321eed1cdaeb6115181d29060200160405180910390a15b5050505050614d1780620001336000396000f3fe6080604052600436106104105760003560e01c80637f6fb2531161021e578063cad0055611610123578063edec5f27116100ab578063f597573f1161007a578063f597573f14610bf9578063f851a44014610c19578063f885838614610c39578063fb9a4acd14610c59578063fe575a8714610c7957600080fd5b8063edec5f2714610b83578063f04d688f14610ba3578063f2fde38b14610bb9578063f446374314610bd957600080fd5b8063e19648db116100f2578063e19648db14610aed578063e32204dd14610b0d578063e6da921314610b2d578063e985e36714610b4d578063eadd94ec14610b6d57600080fd5b8063cad0055614610a81578063cb1a4fc014610aa1578063cff805ab14610ab6578063dad80e8614610acc57600080fd5b8063ae104265116101a6578063ba166a3911610175578063ba166a39146109df578063bb3d676a14610a0c578063c23326f314610a2c578063c49cc64514610a4c578063c8adff0114610a6c57600080fd5b8063ae1042651461096c578063ae4e0a181461098c578063b00bba6a1461099f578063b8977d6d146109bf57600080fd5b80638da5cb5b116101ed5780638da5cb5b146108ec5780638e15f473146109015780639a89c1fb146109165780639cfa0f7c14610936578063a6d42e4e1461094c57600080fd5b80637f6fb253146108815780638456cb591461089757806389daf799146108ac5780638ac08082146108cc57600080fd5b80633f4ba83a116103245780635df4f353116102ac578063704b6c021161027b578063704b6c02146107e6578063715018a61461080657806373b2e80e1461081b57806378e979251461084b5780637ad71f721461086157600080fd5b80635df4f3531461076b57806363b201171461079b57806363e40879146107b1578063641046f4146107d157600080fd5b8063548db174116102f3578063548db174146106d057806357405d05146106f05780635bc34f71146107105780635c975abb146107265780635ddc56881461074b57600080fd5b80633f4ba83a1461066f57806343568eae146106845780634e71d92d1461069a57806353d99207146106af57600080fd5b806323a8f1c0116103a75780632dc358e8116103765780632dc358e8146105bb5780633197cbb6146105db57806333f76178146105f157806338646608146106075780633af32abf1461063f57600080fd5b806323a8f1c014610548578063278c278b1461056857806329a5a0b6146105885780632c65169e146105a857600080fd5b80630dc9c838116103e35780630dc9c838146104c7578063136021d9146104e75780631ddc6091146105075780631fa2bc921461052757600080fd5b806303b9c5ad1461041557806307f18082146104375780630a200fc71461046c5780630ba36dcd1461048c575b600080fd5b34801561042157600080fd5b506104356104303660046144b3565b610ca9565b005b34801561044357600080fd5b506104576104523660046144f5565b610d1e565b60405190151581526020015b60405180910390f35b34801561047857600080fd5b5061043561048736600461451c565b610e5a565b34801561049857600080fd5b506104b96104a7366004614550565b60176020526000908152604090205481565b604051908152602001610463565b3480156104d357600080fd5b506104356104e236600461456b565b610e80565b3480156104f357600080fd5b5061045761050236600461458d565b61105c565b34801561051357600080fd5b5061043561052236600461451c565b61159e565b34801561053357600080fd5b5060145461045790600160a01b900460ff1681565b34801561055457600080fd5b506104356105633660046144f5565b6115c4565b34801561057457600080fd5b506104356105833660046144f5565b6115d1565b34801561059457600080fd5b506104b96105a33660046144f5565b611674565b6104576105b636600461458d565b6116a8565b3480156105c757600080fd5b506104356105d6366004614697565b611b55565b3480156105e757600080fd5b506104b960025481565b3480156105fd57600080fd5b506104b960055481565b34801561061357600080fd5b50601c54610627906001600160a01b031681565b6040516001600160a01b039091168152602001610463565b34801561064b57600080fd5b5061045761065a366004614550565b601a6020526000908152604090205460ff1681565b34801561067b57600080fd5b50610435611c76565b34801561069057600080fd5b506104b9600a5481565b3480156106a657600080fd5b50610457611c88565b3480156106bb57600080fd5b5060145461045790600160a81b900460ff1681565b3480156106dc57600080fd5b506104356106eb3660046144b3565b611fd3565b3480156106fc57600080fd5b5061043561070b36600461475a565b612043565b34801561071c57600080fd5b506104b960075481565b34801561073257600080fd5b50600080516020614ca28339815191525460ff16610457565b34801561075757600080fd5b506104356107663660046147e6565b61230d565b34801561077757600080fd5b50610457610786366004614550565b601b6020526000908152604090205460ff1681565b3480156107a757600080fd5b506104b960005481565b3480156107bd57600080fd5b506104b96107cc3660046144f5565b6124fb565b3480156107dd57600080fd5b5061043561251d565b3480156107f257600080fd5b50610435610801366004614550565b6126f2565b34801561081257600080fd5b5061043561271c565b34801561082757600080fd5b50610457610836366004614550565b60186020526000908152604090205460ff1681565b34801561085757600080fd5b506104b960015481565b34801561086d57600080fd5b5061062761087c3660046144f5565b61272e565b34801561088d57600080fd5b506104b9600b5481565b3480156108a357600080fd5b50610435612758565b3480156108b857600080fd5b506104356108c73660046144b3565b612768565b3480156108d857600080fd5b506104576108e73660046148a6565b6127d8565b3480156108f857600080fd5b50610627612a2b565b34801561090d57600080fd5b506104b9612a59565b34801561092257600080fd5b5061043561093136600461456b565b612aea565b34801561094257600080fd5b506104b960065481565b34801561095857600080fd5b506104356109673660046148ec565b612afd565b34801561097857600080fd5b506104b96109873660046144f5565b612b12565b61045761099a366004614921565b612e46565b3480156109ab57600080fd5b506104356109ba366004614550565b613383565b3480156109cb57600080fd5b506104356109da36600461451c565b613495565b3480156109eb57600080fd5b506109ff6109fa3660046144f5565b6134bb565b6040516104639190614961565b348015610a1857600080fd5b50610435610a273660046144b3565b613527565b348015610a3857600080fd5b506104b9610a473660046144f5565b613597565b348015610a5857600080fd5b50601654610627906001600160a01b031681565b348015610a7857600080fd5b506109ff6135b8565b348015610a8d57600080fd5b50610435610a9c366004614550565b613610565b348015610aad57600080fd5b50610457613689565b348015610ac257600080fd5b506104b960085481565b348015610ad857600080fd5b5060145461045790600160b01b900460ff1681565b348015610af957600080fd5b506104b9610b083660046144f5565b6138c0565b348015610b1957600080fd5b50601354610627906001600160a01b031681565b348015610b3957600080fd5b506104b9610b4836600461456b565b6138d0565b348015610b5957600080fd5b50600454610627906001600160a01b031681565b348015610b7957600080fd5b506104b960095481565b348015610b8f57600080fd5b50610435610b9e3660046144b3565b613904565b348015610baf57600080fd5b506104b960035481565b348015610bc557600080fd5b50610435610bd4366004614550565b613974565b348015610be557600080fd5b50610435610bf43660046144b3565b6139b2565b348015610c0557600080fd5b50601554610627906001600160a01b031681565b348015610c2557600080fd5b50601454610627906001600160a01b031681565b348015610c4557600080fd5b506104b9610c543660046144f5565b613a22565b348015610c6557600080fd5b50610435610c743660046149a5565b613a32565b348015610c8557600080fd5b50610457610c94366004614550565b60196020526000908152604090205460ff1681565b610cb1613b0d565b60005b81811015610d19576001601b6000858585818110610cd457610cd4614a11565b9050602002016020810190610ce99190614550565b6001600160a01b031681526020810191909152604001600020805460ff1916911515919091179055600101610cb4565b505050565b6000610d28613b0d565b600060035411610d7f5760405162461bcd60e51b815260206004820152601a60248201527f496e697469616c20636c61696d2064617461206e6f742073657400000000000060448201526064015b60405180910390fd5b6002548211610dc35760405162461bcd60e51b815260206004820152601060248201526f53616c6520696e2070726f677265737360801b6044820152606401610d76565b428211610e085760405162461bcd60e51b815260206004820152601360248201527210db185a5b481cdd185c9d081a5b881c185cdd606a1b6044820152606401610d76565b60038054908390556040805182815260208101859052428183015290517f5f3a900c85949962b4cc192dd3714dae64071dc2e907049ec720b023270905a49181900360600190a160019150505b919050565b610e62613b0d565b60148054911515600160a01b0260ff60a01b19909216919091179055565b610e88613b0d565b6000821180610e975750600081115b610ed85760405162461bcd60e51b8152602060048201526012602482015271496e76616c696420706172616d657465727360701b6044820152606401610d76565b8115610fbd576001544210610f265760405162461bcd60e51b815260206004820152601460248201527314d85b1948185b1c9958591e481cdd185c9d195960621b6044820152606401610d76565b814210610f695760405162461bcd60e51b815260206004820152601160248201527014d85b19481d1a5b59481a5b881c185cdd607a1b6044820152606401610d76565b60018054908390556040805182815260208101859052428183015290516414d510549560da1b917fddd2ed237e6993c9380182683f2c8bec486aaaa429528852cd74dbdb96cea0b2919081900360600190a2505b80156110585760015481116110065760405162461bcd60e51b815260206004820152600f60248201526e496e76616c696420656e6454696d6560881b6044820152606401610d76565b60028054908290556040805182815260208101849052428183015290516211539160ea1b917fddd2ed237e6993c9380182683f2c8bec486aaaa429528852cd74dbdb96cea0b2919081900360600190a2505b5050565b600082600154421015801561107357506002544211155b61108f5760405162461bcd60e51b8152600401610d7690614a27565b600081116110af5760405162461bcd60e51b8152600401610d7690614a5e565b6110b7613b3f565b60006110c285612b12565b9050846000808282546110d59190614aa1565b90915550600090506110ec64e8d4a5100083614ab4565b905060085460001461111057856008600082825461110a9190614aa1565b90915550505b60006008546000541161112557600854611129565b6000545b9050600c6000016007548154811061114357611143614a11565b906000526020600020015481118061117d5750600c6002016007548154811061116e5761116e614a11565b90600052602060002001544210155b156112b757600c6002016007548154811061119a5761119a614a11565b906000526020600020015442106111dd5786600c600001600754815481106111c4576111c4614a11565b90600052602060002001546111d99190614aa1565b6008555b601454600160a01b900460ff16156111f7576111f7613b70565b6000600c81016007548154811061121057611210614a11565b9060005260206000200154821161125f578782600c6000016007548154811061123b5761123b614a11565b90600052602060002001546112509190614ad6565b61125a9190614ad6565b611262565b60005b601080546001818101835560009283527f1b6847dc741a1b0cd08d278845f9d819d87b734759afb55fe2de5cb82a9ae6729091018390556007805493945090929091906112b0908490614aa1565b9091555050505b85156113fa57601454600160b01b900460ff16156112fe57336000908152601a602052604090205460ff166112fe5760405162461bcd60e51b8152600401610d7690614ae9565b601c546001600160a01b03166391c619663360055461131d908b614b20565b6040516001600160e01b031960e085901b1681526001600160a01b0390921660048301526024820152604401600060405180830381600087803b15801561136357600080fd5b505af1158015611377573d6000803e3d6000fd5b5050505086600b600082825461138d9190614aa1565b90915550506015546001600160a01b031687336001600160a01b03167f6f225532a9c33b023b8e48247ad8df9d98f132ae17c769b97ff22d2b278fa73a8587426040516113ed939291909283526020830191909152604082015260600190565b60405180910390a461148f565b6005546114079088614b20565b3360009081526017602052604081208054909190611426908490614aa1565b90915550506015546001600160a01b031687336001600160a01b03167f4d8aead3491b7eba4b5c7a65fc17e493b9e63f9e433522fc5f6a85a168fc9d36858742604051611486939291909283526020830191909152604082015260600190565b60405180910390a45b82600960008282546114a19190614aa1565b90915550506015546000906001600160a01b031663dd62ed3e336040516001600160e01b031960e084901b1681526001600160a01b039091166004820152306024820152604401602060405180830381865afa158015611505573d6000803e3d6000fd5b505050506040513d601f19601f820116820180604052508101906115299190614b37565b9050808311156115855760405162461bcd60e51b815260206004820152602160248201527f4d616b65207375726520746f2061646420656e6f75676820616c6c6f77616e636044820152606560f81b6064820152608401610d76565b61158e83613bd6565b60019550505050505b5092915050565b6115a6613b0d565b60148054911515600160a81b0260ff60a81b19909216919091179055565b6115cc613b0d565b600a55565b6115d9613b0d565b600081116116295760405162461bcd60e51b815260206004820152601c60248201527f5a65726f206d617820746f6b656e7320746f206275792076616c7565000000006044820152606401610d76565b60068054908290556040805182815260208101849052428183015290517f76f9e5e1f6af6a9f180708b77a5c99210fbf19b91f1f194f3918c262b8edf77c9181900360600190a15050565b60008061168083612b12565b905061168a612a59565b6005546116979083614b20565b6116a19190614ab4565b9392505050565b60008260015442101580156116bf57506002544211155b6116db5760405162461bcd60e51b8152600401610d7690614a27565b600081116116fb5760405162461bcd60e51b8152600401610d7690614a5e565b611703613b3f565b61170b613f45565b600061171685612b12565b90506000611722612a59565b60055461172f9084614b20565b6117399190614ab4565b90508034101561177a5760405162461bcd60e51b815260206004820152600c60248201526b13195cdcc81c185e5b595b9d60a21b6044820152606401610d76565b60006117868234614ad6565b9050866000808282546117999190614aa1565b9091555050600854156117be5786600860008282546117b89190614aa1565b90915550505b6000600854600054116117d3576008546117d7565b6000545b9050600c600001600754815481106117f1576117f1614a11565b906000526020600020015481118061182b5750600c6002016007548154811061181c5761181c614a11565b90600052602060002001544210155b1561196557600c6002016007548154811061184857611848614a11565b9060005260206000200154421061188b5787600c6000016007548154811061187257611872614a11565b90600052602060002001546118879190614aa1565b6008555b601454600160a01b900460ff16156118a5576118a5613b70565b6000600c8101600754815481106118be576118be614a11565b9060005260206000200154821161190d578882600c600001600754815481106118e9576118e9614a11565b90600052602060002001546118fe9190614ad6565b6119089190614ad6565b611910565b60005b601080546001818101835560009283527f1b6847dc741a1b0cd08d278845f9d819d87b734759afb55fe2de5cb82a9ae67290910183905560078054939450909290919061195e908490614aa1565b9091555050505b8615611a8c57601454600160b01b900460ff16156119ac57336000908152601a602052604090205460ff166119ac5760405162461bcd60e51b8152600401610d7690614ae9565b601c546001600160a01b03166391c61966336005546119cb908c614b20565b6040516001600160e01b031960e085901b1681526001600160a01b0390921660048301526024820152604401600060405180830381600087803b158015611a1157600080fd5b505af1158015611a25573d6000803e3d6000fd5b5050505087600b6000828254611a3b9190614aa1565b90915550506040805184815260208101869052428183015290516000918a9133917f6f225532a9c33b023b8e48247ad8df9d98f132ae17c769b97ff22d2b278fa73a919081900360600190a4611b05565b600554611a999089614b20565b3360009081526017602052604081208054909190611ab8908490614aa1565b90915550506040805184815260208101869052428183015290516000918a9133917f4d8aead3491b7eba4b5c7a65fc17e493b9e63f9e433522fc5f6a85a168fc9d36919081900360600190a45b8360096000828254611b179190614aa1565b90915550611b26905083613f7d565b8115611b3657611b3633836140d2565b60019550505050506115976001600080516020614cc283398151915255565b6014546001600160a01b0316331480611b865750611b71612a2b565b6001600160a01b0316336001600160a01b0316145b611bce5760405162461bcd60e51b815260206004820152601960248201527831b0b63632b9103737ba1030b236b4b71037b91037bbb732b960391b6044820152606401610d76565b8051600003611c1f5760405162461bcd60e51b815260206004820152601c60248201527f63616e6e6f742075706461746520696e76616c69642076616c756573000000006044820152606401610d76565b611c2b60106000614380565b60005b8151811015611058576010828281518110611c4b57611c4b614a11565b6020908102919091018101518254600181810185556000948552929093209092019190915501611c2e565b611c7e613b0d565b611c866141bc565b565b6000611c92613b3f565b6004546001600160a01b0316611ce15760405162461bcd60e51b815260206004820152601460248201527314d85b19481d1bdad95b881b9bdd08185919195960621b6044820152606401610d76565b3360009081526019602052604090205460ff1615611d415760405162461bcd60e51b815260206004820152601b60248201527f54686973204164647265737320697320426c61636b6c697374656400000000006044820152606401610d76565b601454600160a81b900460ff1615611db257336000908152601a602052604090205460ff16611db25760405162461bcd60e51b815260206004820152601e60248201527f55736572206e6f742077686974656c697374656420666f7220636c61696d00006044820152606401610d76565b600354421015611e045760405162461bcd60e51b815260206004820152601960248201527f436c61696d20686173206e6f74207374617274656420796574000000000000006044820152606401610d76565b3360009081526018602052604090205460ff1615611e565760405162461bcd60e51b815260206004820152600f60248201526e105b1c9958591e4818db185a5b5959608a1b6044820152606401610d76565b336000908152601860209081526040808320805460ff19166001179055601790915290205480611ebb5760405162461bcd60e51b815260206004820152601060248201526f4e6f7468696e6720746f20636c61696d60801b6044820152606401610d76565b33600081815260176020908152604080832083905560048054825163a9059cbb60e01b81529182019590955260248101869052905192936001600160a01b03169263a9059cbb92604480840193919291829003018187875af1158015611f25573d6000803e3d6000fd5b505050506040513d601f19601f82011682018060405250810190611f499190614b50565b905080611f905760405162461bcd60e51b8152602060048201526015602482015274151bdad95b881d1c985b9cd9995c8819985a5b1959605a1b6044820152606401610d76565b6040805183815242602082015233917f9923b4306c6c030f2bdfbf156517d5983b87e15b96176da122cd4f2effa4ba7b910160405180910390a260019250505090565b611fdb613b0d565b60005b81811015610d19576000601a6000858585818110611ffe57611ffe614a11565b90506020020160208101906120139190614550565b6001600160a01b031681526020810191909152604001600020805460ff1916911515919091179055600101611fde565b7ff0c57e16840df040f15088dc2f81fe391c3923bec73e23a9662efc9c229c6a008054600160401b810460ff16159067ffffffffffffffff166000811580156120895750825b905060008267ffffffffffffffff1660011480156120a65750303b155b9050811580156120b4575080155b156120d25760405163f92ee8a960e01b815260040160405180910390fd5b845467ffffffffffffffff1916600117855583156120fc57845460ff60401b1916600160401b1785555b6001600160a01b038c166121525760405162461bcd60e51b815260206004820152601760248201527f5a65726f2061676772656761746f7220616464726573730000000000000000006044820152606401610d76565b6001600160a01b038b1661219c5760405162461bcd60e51b81526020600482015260116024820152705a65726f2055534454206164647265737360781b6044820152606401610d76565b428a1180156121aa57508989115b6121e55760405162461bcd60e51b815260206004820152600c60248201526b496e76616c69642074696d6560a01b6044820152606401610d76565b6121ed61421c565b6121f63361423d565b6121fe614245565b670de0b6b3a7640000600555601680546001600160a01b03808f166001600160a01b03199283161790925560158054928e169290911691909117905560018a90556002899055612251600c89600361439e565b506006879055601380546001600160a01b0319166001600160a01b03881617905560015460025460408051928352602083019190915242908201527f23f6ad8232d75562dd1c6b37dfc895af6bfc1ecd0fb3b88722c6a5e6b4dc9a209060600160405180910390a183156122ff57845460ff60401b19168555604051600181527fc7f505b2f371ae2175ee4913f4499e1f2633a7b5936321eed1cdaeb6115181d29060200160405180910390a15b505050505050505050505050565b612315613b0d565b805182511461235a5760405162461bcd60e51b81526020600482015260116024820152704d69736d6174636865642061727261797360781b6044820152606401610d76565b61236660126000614380565b61237260116000614380565b6000805b83518110156124aa57600083828151811061239357612393614a11565b6020026020010151116123f25760405162461bcd60e51b815260206004820152602160248201527f50657263656e74616765206d7573742062652067726561746572207468616e206044820152600360fc1b6064820152608401610d76565b82818151811061240457612404614a11565b6020026020010151826124179190614aa1565b9150601284828151811061242d5761242d614a11565b60209081029190910181015182546001810184556000938452919092200180546001600160a01b0319166001600160a01b03909216919091179055825160119084908390811061247f5761247f614a11565b6020908102919091018101518254600181810185556000948552929093209092019190915501612376565b5080606414610d195760405162461bcd60e51b815260206004820152601f60248201527f546f74616c2070657263656e74616765206d75737420657175616c20313030006044820152606401610d76565b600061250682612b12565b905061251764e8d4a5100082614ab4565b92915050565b6014546001600160a01b031633148061254e5750612539612a2b565b6001600160a01b0316336001600160a01b0316145b6125965760405162461bcd60e51b815260206004820152601960248201527831b0b63632b9103737ba1030b236b4b71037b91037bbb732b960391b6044820152606401610d76565b600854600f80546001810182556000919091527f8d1108e10bcb7c27dddfc02ed9d693a074039d026cf4ea4240b40f7d581ac8020155601454600160a01b900460ff16156125e6576125e6613b70565b600c600001600754815481106125fe576125fe614a11565b906000526020600020015460085410156126db576007546000036126695760008054601091600c016007548154811061263957612639614a11565b906000526020600020015461264e9190614ad6565b815460018101835560009283526020909220909101556126b3565b600854601090600c6000016007548154811061268757612687614a11565b906000526020600020015461269c9190614ad6565b815460018101835560009283526020909220909101555b600c600001600754815481106126cb576126cb614a11565b6000918252602090912001546008555b600780549060006126eb83614b6d565b9190505550565b6126fa613b0d565b601480546001600160a01b0319166001600160a01b0392909216919091179055565b612724613b0d565b611c86600061424d565b6012818154811061273e57600080fd5b6000918252602090912001546001600160a01b0316905081565b612760613b0d565b611c866142be565b612770613b0d565b60005b81811015610d195760006019600085858581811061279357612793614a11565b90506020020160208101906127a89190614550565b6001600160a01b031681526020810191909152604001600020805460ff1916911515919091179055600101612773565b60006127e2613b0d565b6001600160a01b03831661282d5760405162461bcd60e51b81526020600482015260126024820152715a65726f20746f6b656e206164647265737360701b6044820152606401610d76565b600354156128715760405162461bcd60e51b815260206004820152601160248201527010db185a5b48185b1c9958591e481cd95d607a1b6044820152606401610d76565b6003859055600480546001600160a01b038581166001600160a01b0319928316811784556014805460ff60a81b1916600160a81b179055601c805492871692909316821790925560405163095ea7b360e01b81529283015260001960248301529063095ea7b3906044016020604051808303816000875af11580156128fa573d6000803e3d6000fd5b505050506040513d601f19601f8201168201806040525081019061291e9190614b50565b506040516323b872dd60e01b81526000906001600160a01b038516906323b872dd9061295290339030908a90600401614b86565b6020604051808303816000875af1158015612971573d6000803e3d6000fd5b505050506040513d601f19601f820116820180604052508101906129959190614b50565b9050806129dc5760405162461bcd60e51b8152602060048201526015602482015274151bdad95b881d1c985b9cd9995c8819985a5b1959605a1b6044820152606401610d76565b604080518681524260208201526001600160a01b038616917fdc9670dbabdd488b372eb16ebe49a39b3124a12cdffdcefbc89834a408bf8ff8910160405180910390a250600195945050505050565b7f9016d09d72d40fdae2fd8ceac6b6234c7706214fd39c1cd1e609a0528c199300546001600160a01b031690565b600080601660009054906101000a90046001600160a01b03166001600160a01b031663feaf968c6040518163ffffffff1660e01b815260040160a060405180830381865afa158015612aaf573d6000803e3d6000fd5b505050506040513d601f19601f82011682018060405250810190612ad39190614bc4565b505050915050806402540be4006125179190614c14565b612af2613b0d565b600791909155600855565b612b05613b0d565b611058600c82600361439e565b6000806000600854600014612b2957600854612b2d565b6000545b9050600654841115612b815760405162461bcd60e51b815260206004820181905260248201527f416d6f756e742065786365656473206d617820746f6b656e7320746f206275796044820152606401610d76565b600c60000160075481548110612b9957612b99614a11565b90600052602060002001548185612bb09190614aa1565b1180612bde5750600c60020160075481548110612bcf57612bcf614a11565b90600052602060002001544210155b15612e1057600c54612bf290600190614ad6565b60075410612c315760405162461bcd60e51b815260206004820152600c60248201526b57726f6e6720706172616d7360a01b6044820152606401610d76565b600c60020160075481548110612c4957612c49614a11565b90600052602060002001544210612d5c57600754600c90612c6b906001614aa1565b81548110612c7b57612c7b614a11565b906000526020600020015484600c600060038110612c9b57612c9b614a11565b0160075481548110612caf57612caf614a11565b9060005260206000200154612cc49190614aa1565b1115612d1e5760405162461bcd60e51b815260206004820152602360248201527f43616e74205075726368617365204d6f726520696e20696e646976696475616c604482015262040e8f60eb1b6064820152608401610d76565b600754600d90612d2f906001614aa1565b81548110612d3f57612d3f614a11565b906000526020600020015484612d559190614b20565b9150611597565b600081600c820160075481548110612d7657612d76614a11565b9060005260206000200154612d8b9190614ad6565b600754909150600d90612d9f906001614aa1565b81548110612daf57612daf614a11565b90600052602060002001548186612dc69190614ad6565b612dd09190614b20565b600c60010160075481548110612de857612de8614a11565b906000526020600020015482612dfe9190614b20565b612e089190614aa1565b925050611597565b600c60010160075481548110612e2857612e28614a11565b906000526020600020015484612e3e9190614b20565b949350505050565b6000826001544210158015612e5d57506002544211155b612e795760405162461bcd60e51b8152600401610d7690614a27565b60008111612e995760405162461bcd60e51b8152600401610d7690614a5e565b612ea1613b3f565b612ea9613f45565b336000908152601b602052604090205460ff16612f085760405162461bcd60e51b815260206004820181905260248201527f55736572206e6f742077686974656c697374656420666f7220746869732074786044820152606401610d76565b6000612f1385612b12565b90506000612f1f612a59565b600554612f2c9084614b20565b612f369190614ab4565b905080341015612f775760405162461bcd60e51b815260206004820152600c60248201526b13195cdcc81c185e5b595b9d60a21b6044820152606401610d76565b6000612f838234614ad6565b905086600080828254612f969190614aa1565b909155505060085415612fbb578660086000828254612fb59190614aa1565b90915550505b600060085460005411612fd057600854612fd4565b6000545b9050600c60000160075481548110612fee57612fee614a11565b90600052602060002001548111806130285750600c6002016007548154811061301957613019614a11565b90600052602060002001544210155b1561316257600c6002016007548154811061304557613045614a11565b906000526020600020015442106130885787600c6000016007548154811061306f5761306f614a11565b90600052602060002001546130849190614aa1565b6008555b601454600160a01b900460ff16156130a2576130a2613b70565b6000600c8101600754815481106130bb576130bb614a11565b9060005260206000200154821161310a578882600c600001600754815481106130e6576130e6614a11565b90600052602060002001546130fb9190614ad6565b6131059190614ad6565b61310d565b60005b601080546001818101835560009283527f1b6847dc741a1b0cd08d278845f9d819d87b734759afb55fe2de5cb82a9ae67290910183905560078054939450909290919061315b908490614aa1565b9091555050505b86156132a057601454600160b01b900460ff16156131b2576001600160a01b0389166000908152601a602052604090205460ff166131b25760405162461bcd60e51b8152600401610d7690614ae9565b601c546005546001600160a01b03909116906391c61966908b906131d6908c614b20565b6040516001600160e01b031960e085901b1681526001600160a01b0390921660048301526024820152604401600060405180830381600087803b15801561321c57600080fd5b505af1158015613230573d6000803e3d6000fd5b5050505087600b60008282546132469190614aa1565b90915550506040805184815260208101869052428183015290516000918a916001600160a01b038d16917f6f225532a9c33b023b8e48247ad8df9d98f132ae17c769b97ff22d2b278fa73a919081900360600190a461332b565b6005546132ad9089614b20565b6001600160a01b038a16600090815260176020526040812080549091906132d5908490614aa1565b90915550506040805184815260208101869052428183015290516000918a916001600160a01b038d16917f4d8aead3491b7eba4b5c7a65fc17e493b9e63f9e433522fc5f6a85a168fc9d36919081900360600190a45b836009600082825461333d9190614aa1565b9091555061334c905083613f7d565b811561335c5761335c89836140d2565b600195505050505061337b6001600080516020614cc283398151915255565b509392505050565b61338b613b0d565b6001600160a01b0381166134075760405162461bcd60e51b815260206004820152603760248201527f7374616b696e67206d616e616765722063616e6e6f7420626520696e6174696160448201527f6c697a65642077697468207a65726f20616464726573730000000000000000006064820152608401610d76565b601c80546001600160a01b0319166001600160a01b038381169182179092556004805460405163095ea7b360e01b815291820192909252600019602482015291169063095ea7b3906044016020604051808303816000875af1158015613471573d6000803e3d6000fd5b505050506040513d601f19601f820116820180604052508101906110589190614b50565b61349d613b0d565b60148054911515600160b01b0260ff60b01b19909216919091179055565b6060600c82600381106134d0576134d0614a11565b0180548060200260200160405190810160405280929190818152602001828054801561351b57602002820191906000526020600020905b815481526020019060010190808311613507575b50505050509050919050565b61352f613b0d565b60005b81811015610d195760016019600085858581811061355257613552614a11565b90506020020160208101906135679190614550565b6001600160a01b031681526020810191909152604001600020805460ff1916911515919091179055600101613532565b601081815481106135a757600080fd5b600091825260209091200154905081565b6060601080548060200260200160405190810160405280929190818152602001828054801561360657602002820191906000526020600020905b8154815260200190600101908083116135f2575b5050505050905090565b613618613b0d565b6001600160a01b0381166136675760405162461bcd60e51b8152602060048201526016602482015275616464726573732063616e6e6f74206265207a65726f60501b6044820152606401610d76565b601380546001600160a01b0319166001600160a01b0392909216919091179055565b6000613693613b3f565b6004546001600160a01b03166136e25760405162461bcd60e51b815260206004820152601460248201527314d85b19481d1bdad95b881b9bdd08185919195960621b6044820152606401610d76565b3360009081526019602052604090205460ff16156137425760405162461bcd60e51b815260206004820152601b60248201527f54686973204164647265737320697320426c61636b6c697374656400000000006044820152606401610d76565b601454600160b01b900460ff161561378357336000908152601a602052604090205460ff166137835760405162461bcd60e51b8152600401610d7690614ae9565b33600090815260176020526040902054806137d35760405162461bcd60e51b815260206004820152601060248201526f4e6f7468696e6720746f207374616b6560801b6044820152606401610d76565b601c546001600160a01b03166391c61966336040516001600160e01b031960e084901b1681526001600160a01b03909116600482015260248101849052604401600060405180830381600087803b15801561382d57600080fd5b505af1158015613841573d6000803e3d6000fd5b50505050601760006138503390565b6001600160a01b031681526020810191909152604001600090812055336001600160a01b03167ffa4ec67f9254455933eb145bae864b26f29dd0a7bbb76eb11e4d6b8b9b184c2b82426040516138b0929190918252602082015260400190565b60405180910390a2600191505090565b600f81815481106135a757600080fd5b600c82600381106138e057600080fd5b0181815481106138ef57600080fd5b90600052602060002001600091509150505481565b61390c613b0d565b60005b81811015610d19576001601a600085858581811061392f5761392f614a11565b90506020020160208101906139449190614550565b6001600160a01b031681526020810191909152604001600020805460ff191691151591909117905560010161390f565b61397c613b0d565b6001600160a01b0381166139a657604051631e4fbdf760e01b815260006004820152602401610d76565b6139af8161424d565b50565b6139ba613b0d565b60005b81811015610d19576000601b60008585858181106139dd576139dd614a11565b90506020020160208101906139f29190614550565b6001600160a01b031681526020810191909152604001600020805460ff19169115159190911790556001016139bd565b601181815481106135a757600080fd5b613a3a613b0d565b828114613a7b5760405162461bcd60e51b815260206004820152600f60248201526e098cadccee8d040dad2e6dac2e8c6d608b1b6044820152606401610d76565b60005b83811015613b0657828282818110613a9857613a98614a11565b9050602002013560176000878785818110613ab557613ab5614a11565b9050602002016020810190613aca9190614550565b6001600160a01b03166001600160a01b031681526020019081526020016000206000828254613af99190614aa1565b9091555050600101613a7e565b5050505050565b33613b16612a2b565b6001600160a01b031614611c865760405163118cdaa760e01b8152336004820152602401610d76565b600080516020614ca28339815191525460ff1615611c865760405163d93c066560e01b815260040160405180910390fd5b60005b600754600e54613b839190614ad6565b8110156139af57600a54613b979082614b20565b613ba19042614aa1565b600754600e90613bb2908490614aa1565b81548110613bc257613bc2614a11565b600091825260209091200155600101613b73565b601254600003613cf8576013546001600160a01b0316613c315760405162461bcd60e51b815260206004820152601660248201527514185e5b595b9d081dd85b1b195d081b9bdd081cd95d60521b6044820152606401610d76565b6015546000906001600160a01b031633601354604051613c6092916001600160a01b0316908690602401614b86565b60408051601f198184030181529181526020820180516001600160e01b03166323b872dd60e01b17905251613c959190614c44565b6000604051808303816000865af19150503d8060008114613cd2576040519150601f19603f3d011682016040523d82523d6000602084013e613cd7565b606091505b50509050806110585760405162461bcd60e51b8152600401610d7690614c73565b6000805b601254811015613e39576000606460118381548110613d1d57613d1d614a11565b906000526020600020015485613d339190614b20565b613d3d9190614ab4565b6015549091506000906001600160a01b03163360128581548110613d6357613d63614a11565b600091825260209091200154604051613d8b92916001600160a01b0316908690602401614b86565b60408051601f198184030181529181526020820180516001600160e01b03166323b872dd60e01b17905251613dc09190614c44565b6000604051808303816000865af19150503d8060008114613dfd576040519150601f19603f3d011682016040523d82523d6000602084013e613e02565b606091505b5050905080613e235760405162461bcd60e51b8152600401610d7690614c73565b613e2d8285614aa1565b93505050600101613cfc565b506000613e468284614ad6565b1115611058576015546000906001600160a01b03163360128054613e6c90600190614ad6565b81548110613e7c57613e7c614a11565b6000918252602090912001546001600160a01b0316613e9b8587614ad6565b604051602401613ead93929190614b86565b60408051601f198184030181529181526020820180516001600160e01b03166323b872dd60e01b17905251613ee29190614c44565b6000604051808303816000865af19150503d8060008114613f1f576040519150601f19603f3d011682016040523d82523d6000602084013e613f24565b606091505b5050905080610d195760405162461bcd60e51b8152600401610d7690614c73565b600080516020614cc2833981519152805460011901613f7757604051633ee5aeb560e01b815260040160405180910390fd5b60029055565b601254600003613fee576013546001600160a01b0316613fd85760405162461bcd60e51b815260206004820152601660248201527514185e5b595b9d081dd85b1b195d081b9bdd081cd95d60521b6044820152606401610d76565b6013546139af906001600160a01b0316826140d2565b6000805b60125481101561407b57600060646011838154811061401357614013614a11565b9060005260206000200154856140299190614b20565b6140339190614ab4565b90506140666012838154811061404b5761404b614a11565b6000918252602090912001546001600160a01b0316826140d2565b6140708184614aa1565b925050600101613ff2565b5060006140888284614ad6565b1115611058576012805461105891906140a390600190614ad6565b815481106140b3576140b3614a11565b6000918252602090912001546001600160a01b03166140d28385614ad6565b804710156141105760405162461bcd60e51b815260206004820152600b60248201526a4c6f772062616c616e636560a81b6044820152606401610d76565b6000826001600160a01b03168260405160006040518083038185875af1925050503d806000811461415d576040519150601f19603f3d011682016040523d82523d6000602084013e614162565b606091505b5050905080610d195760405162461bcd60e51b81526020600482015260126024820152711155120814185e5b595b9d0819985a5b195960721b6044820152606401610d76565b6001600080516020614cc283398151915255565b6141c4614307565b600080516020614ca2833981519152805460ff191681557f5db9ee0a495bf2e6ff9c91a7834c1ba4fdd244a5e8aa4e537bd38aeae4b073aa335b6040516001600160a01b03909116815260200160405180910390a150565b614224614337565b600080516020614ca2833981519152805460ff19169055565b61397c614337565b6141a8614337565b7f9016d09d72d40fdae2fd8ceac6b6234c7706214fd39c1cd1e609a0528c19930080546001600160a01b031981166001600160a01b03848116918217845560405192169182907f8be0079c531659141344cd1fd0a4f28419497f9722a3daafe3b4186f6b6457e090600090a3505050565b6142c6613b3f565b600080516020614ca2833981519152805460ff191660011781557f62e78cea01bee320cd4e420270b5ea74000d11b0c9f74754ebdbfc544b05a258336141fe565b600080516020614ca28339815191525460ff16611c8657604051638dfc202b60e01b815260040160405180910390fd5b7ff0c57e16840df040f15088dc2f81fe391c3923bec73e23a9662efc9c229c6a0054600160401b900460ff16611c8657604051631afcd79f60e31b815260040160405180910390fd5b50805460008255906000526020600020908101906139af91906143ee565b82600381019282156143de579160200282015b828111156143de57825180516143ce918491602090910190614403565b50916020019190600101906143b1565b506143ea92915061444a565b5090565b5b808211156143ea57600081556001016143ef565b82805482825590600052602060002090810192821561443e579160200282015b8281111561443e578251825591602001919060010190614423565b506143ea9291506143ee565b808211156143ea57600061445e8282614380565b5060010161444a565b60008083601f84011261447957600080fd5b50813567ffffffffffffffff81111561449157600080fd5b6020830191508360208260051b85010111156144ac57600080fd5b9250929050565b600080602083850312156144c657600080fd5b823567ffffffffffffffff8111156144dd57600080fd5b6144e985828601614467565b90969095509350505050565b60006020828403121561450757600080fd5b5035919050565b80151581146139af57600080fd5b60006020828403121561452e57600080fd5b81356116a18161450e565b80356001600160a01b0381168114610e5557600080fd5b60006020828403121561456257600080fd5b6116a182614539565b6000806040838503121561457e57600080fd5b50508035926020909101359150565b600080604083850312156145a057600080fd5b8235915060208301356145b28161450e565b809150509250929050565b634e487b7160e01b600052604160045260246000fd5b604051601f8201601f1916810167ffffffffffffffff811182821017156145fc576145fc6145bd565b604052919050565b600067ffffffffffffffff82111561461e5761461e6145bd565b5060051b60200190565b600082601f83011261463957600080fd5b8135602061464e61464983614604565b6145d3565b8083825260208201915060208460051b87010193508684111561467057600080fd5b602086015b8481101561468c5780358352918301918301614675565b509695505050505050565b6000602082840312156146a957600080fd5b813567ffffffffffffffff8111156146c057600080fd5b612e3e84828501614628565b600082601f8301126146dd57600080fd5b6040516060810167ffffffffffffffff8282108183111715614701576147016145bd565b81604052829150606085018681111561471957600080fd5b855b8181101561474e578035838111156147335760008081fd5b61473f89828a01614628565b8552506020938401930161471b565b50929695505050505050565b600080600080600080600060e0888a03121561477557600080fd5b61477e88614539565b965061478c60208901614539565b95506040880135945060608801359350608088013567ffffffffffffffff8111156147b657600080fd5b6147c28a828b016146cc565b93505060a088013591506147d860c08901614539565b905092959891949750929550565b600080604083850312156147f957600080fd5b823567ffffffffffffffff8082111561481157600080fd5b818501915085601f83011261482557600080fd5b8135602061483561464983614604565b82815260059290921b8401810191818101908984111561485457600080fd5b948201945b838610156148795761486a86614539565b82529482019490820190614859565b9650508601359250508082111561488f57600080fd5b5061489c85828601614628565b9150509250929050565b600080600080608085870312156148bc57600080fd5b84359350602085013592506148d360408601614539565b91506148e160608601614539565b905092959194509250565b6000602082840312156148fe57600080fd5b813567ffffffffffffffff81111561491557600080fd5b612e3e848285016146cc565b60008060006060848603121561493657600080fd5b61493f84614539565b92506020840135915060408401356149568161450e565b809150509250925092565b6020808252825182820181905260009190848201906040850190845b818110156149995783518352928401929184019160010161497d565b50909695505050505050565b600080600080604085870312156149bb57600080fd5b843567ffffffffffffffff808211156149d357600080fd5b6149df88838901614467565b909650945060208701359150808211156149f857600080fd5b50614a0587828801614467565b95989497509550505050565b634e487b7160e01b600052603260045260246000fd5b60208082526017908201527f496e76616c69642074696d6520666f7220627579696e67000000000000000000604082015260600190565b602080825260139082015272125b9d985b1a59081cd85b1948185b5bdd5b9d606a1b604082015260600190565b634e487b7160e01b600052601160045260246000fd5b8082018082111561251757612517614a8b565b600082614ad157634e487b7160e01b600052601260045260246000fd5b500490565b8181038181111561251757612517614a8b565b6020808252601e908201527f55736572206e6f742077686974656c697374656420666f72207374616b650000604082015260600190565b808202811582820484141761251757612517614a8b565b600060208284031215614b4957600080fd5b5051919050565b600060208284031215614b6257600080fd5b81516116a18161450e565b600060018201614b7f57614b7f614a8b565b5060010190565b6001600160a01b039384168152919092166020820152604081019190915260600190565b805169ffffffffffffffffffff81168114610e5557600080fd5b600080600080600060a08688031215614bdc57600080fd5b614be586614baa565b9450602086015193506040860151925060608601519150614c0860808701614baa565b90509295509295909350565b80820260008212600160ff1b84141615614c3057614c30614a8b565b818105831482151761251757612517614a8b565b6000825160005b81811015614c655760208186018101518583015201614c4b565b506000920191825250919050565b602080825260149082015273151bdad95b881c185e5b595b9d0819985a5b195960621b60408201526060019056fecd5ed15c6e187e77e9aee88184c21f4f2182ab5827cb3b7e07fbedcd63f033009b779b17422d0df92223018b32b4d1fa46e071723d6817e2486d003becc55f00a26469706673582212202dea18b3ea31e93962524866a7c627cf48e8d02b4edf598736e8dea8d142987e64736f6c63430008180033",
  "linkReferences": {},
  "deployedLinkReferences": {}
}