{
  "_format": "hh-sol-artifact-1",
  "contractName": "Token",
  "sourceName": "contracts/Token.sol",
  "abi": [
    {
      "inputs": [],
      "stateMutability": "nonpayable",
      "type": "constructor"
    },
    {
      "inputs": [
        {
          "internalType": "address",
          "name": "owner",
          "type": "address"
        }
      ],
      "name": "OwnableInvalidOwner",
      "type": "error"
    },
    {
      "inputs": [
        {
          "internalType": "address",
          "name": "account",
          "type": "address"
        }
      ],
      "name": "OwnableUnauthorizedAccount",
      "type": "error"
    },
    {
      "anonymous": false,
      "inputs": [
        {
          "indexed": true,
          "internalType": "address",
          "name": "owner",
          "type": "address"
        },
        {
          "indexed": true,
          "internalType": "address",
          "name": "spender",
          "type": "address"
        },
        {
          "indexed": false,
          "internalType": "uint256",
          "name": "value",
          "type": "uint256"
        }
      ],
      "name": "Approval",
      "type": "event"
    },
    {
      "anonymous": false,
      "inputs": [
        {
          "indexed": true,
          "internalType": "address",
          "name": "previousOwner",
          "type": "address"
        },
        {
          "indexed": true,
          "internalType": "address",
          "name": "newOwner",
          "type": "address"
        }
      ],
      "name": "OwnershipTransferred",
      "type": "event"
    },
    {
      "anonymous": false,
      "inputs": [
        {
          "indexed": true,
          "internalType": "address",
          "name": "from",
          "type": "address"
        },
        {
          "indexed": true,
          "internalType": "address",
          "name": "to",
          "type": "address"
        },
        {
          "indexed": false,
          "internalType": "uint256",
          "name": "value",
          "type": "uint256"
        }
      ],
      "name": "Transfer",
      "type": "event"
    },
    {
      "inputs": [
        {
          "internalType": "address",
          "name": "from",
          "type": "address"
        },
        {
          "internalType": "address",
          "name": "to",
          "type": "address"
        }
      ],
      "name": "allowance",
      "outputs": [
        {
          "internalType": "uint256",
          "name": "",
          "type": "uint256"
        }
      ],
      "stateMutability": "view",
      "type": "function"
    },
    {
      "inputs": [
        {
          "internalType": "address",
          "name": "to",
          "type": "address"
        },
        {
          "internalType": "uint256",
          "name": "amount",
          "type": "uint256"
        }
      ],
      "name": "approve",
      "outputs": [
        {
          "internalType": "bool",
          "name": "",
          "type": "bool"
        }
      ],
      "stateMutability": "nonpayable",
      "type": "function"
    },
    {
      "inputs": [
        {
          "internalType": "address",
          "name": "account",
          "type": "address"
        }
      ],
      "name": "balanceOf",
      "outputs": [
        {
          "internalType": "uint256",
          "name": "",
          "type": "uint256"
        }
      ],
      "stateMutability": "view",
      "type": "function"
    },
    {
      "inputs": [
        {
          "internalType": "uint256",
          "name": "amount",
          "type": "uint256"
        }
      ],
      "name": "burn",
      "outputs": [],
      "stateMutability": "nonpayable",
      "type": "function"
    },
    {
      "inputs": [],
      "name": "decimals",
      "outputs": [
        {
          "internalType": "uint8",
          "name": "",
          "type": "uint8"
        }
      ],
      "stateMutability": "view",
      "type": "function"
    },
    {
      "inputs": [
        {
          "internalType": "address",
          "name": "to",
          "type": "address"
        },
        {
          "internalType": "uint256",
          "name": "subtractedValue",
          "type": "uint256"
        }
      ],
      "name": "decreaseAllowance",
      "outputs": [
        {
          "internalType": "bool",
          "name": "",
          "type": "bool"
        }
      ],
      "stateMutability": "nonpayable",
      "type": "function"
    },
    {
      "inputs": [
        {
          "internalType": "address",
          "name": "to",
          "type": "address"
        },
        {
          "internalType": "uint256",
          "name": "addedValue",
          "type": "uint256"
        }
      ],
      "name": "increaseAllowance",
      "outputs": [
        {
          "internalType": "bool",
          "name": "",
          "type": "bool"
        }
      ],
      "stateMutability": "nonpayable",
      "type": "function"
    },
    {
      "inputs": [],
      "name": "liquidityReserve",
      "outputs": [
        {
          "internalType": "uint256",
          "name": "",
          "type": "uint256"
        }
      ],
      "stateMutability": "view",
      "type": "function"
    },
    {
      "inputs": [],
      "name": "name",
      "outputs": [
        {
          "internalType": "string",
          "name": "",
          "type": "string"
        }
      ],
      "stateMutability": "view",
      "type": "function"
    },
    {
      "inputs": [],
      "name": "owner",
      "outputs": [
        {
          "internalType": "address",
          "name": "",
          "type": "address"
        }
      ],
      "stateMutability": "view",
      "type": "function"
    },
    {
      "inputs": [],
      "name": "presaleReserve",
      "outputs": [
        {
          "internalType": "uint256",
          "name": "",
          "type": "uint256"
        }
      ],
      "stateMutability": "view",
      "type": "function"
    },
    {
      "inputs": [],
      "name": "projectFundReserve",
      "outputs": [
        {
          "internalType": "uint256",
          "name": "",
          "type": "uint256"
        }
      ],
      "stateMutability": "view",
      "type": "function"
    },
    {
      "inputs": [],
      "name": "renounceOwnership",
      "outputs": [],
      "stateMutability": "nonpayable",
      "type": "function"
    },
    {
      "inputs": [],
      "name": "stakingReserve",
      "outputs": [
        {
          "internalType": "uint256",
          "name": "",
          "type": "uint256"
        }
      ],
      "stateMutability": "view",
      "type": "function"
    },
    {
      "inputs": [],
      "name": "symbol",
      "outputs": [
        {
          "internalType": "string",
          "name": "",
          "type": "string"
        }
      ],
      "stateMutability": "view",
      "type": "function"
    },
    {
      "inputs": [],
      "name": "totalSupply",
      "outputs": [
        {
          "internalType": "uint256",
          "name": "",
          "type": "uint256"
        }
      ],
      "stateMutability": "view",
      "type": "function"
    },
    {
      "inputs": [
        {
          "internalType": "address",
          "name": "recipient",
          "type": "address"
        },
        {
          "internalType": "uint256",
          "name": "amount",
          "type": "uint256"
        }
      ],
      "name": "transfer",
      "outputs": [
        {
          "internalType": "bool",
          "name": "",
          "type": "bool"
        }
      ],
      "stateMutability": "nonpayable",
      "type": "function"
    },
    {
      "inputs": [
        {
          "internalType": "address",
          "name": "sender",
          "type": "address"
        },
        {
          "internalType": "address",
          "name": "recipient",
          "type": "address"
        },
        {
          "internalType": "uint256",
          "name": "amount",
          "type": "uint256"
        }
      ],
      "name": "transferFrom",
      "outputs": [
        {
          "internalType": "bool",
          "name": "",
          "type": "bool"
        }
      ],
      "stateMutability": "nonpayable",
      "type": "function"
    },
    {
      "inputs": [
        {
          "internalType": "address",
          "name": "newOwner",
          "type": "address"
        }
      ],
      "name": "transferOwnership",
      "outputs": [],
      "stateMutability": "nonpayable",
      "type": "function"
    }
  ],
  "bytecode": "0x60806040523480156200001157600080fd5b5033806200003a57604051631e4fbdf760e01b8152600060048201526024015b60405180910390fd5b62000045816200018e565b50604080518082019091526008815267526970706c65414960c01b60208201526004906200007490826200036a565b50604080518082019091526006815265524950504c4560d01b6020820152600590620000a190826200036a565b50620000e073e29609a9694c1d74b686a8ab79dc6a2a91e07445620000c96012600a6200054b565b620000da9064104c533c0062000563565b620001de565b6200011873e29609a9694c1d74b686a8ab79dc6a2a91e07445620001076012600a6200054b565b620000da90640826299e0062000563565b6200015073e29609a9694c1d74b686a8ab79dc6a2a91e074456200013f6012600a6200054b565b620000da906404e3b2920062000563565b6200018873e29609a9694c1d74b686a8ab79dc6a2a91e07445620001776012600a6200054b565b620000da90640342770c0062000563565b62000593565b600080546001600160a01b038381166001600160a01b0319831681178455604051919092169283917f8be0079c531659141344cd1fd0a4f28419497f9722a3daafe3b4186f6b6457e09190a35050565b6001600160a01b038216620002365760405162461bcd60e51b815260206004820152601f60248201527f45524332303a206d696e7420746f20746865207a65726f206164647265737300604482015260640162000031565b80600360008282546200024a91906200057d565b90915550506001600160a01b03821660009081526001602052604081208054839290620002799084906200057d565b90915550506040518181526001600160a01b038316906000907fddf252ad1be2c89b69c2b068fc378daa952ba7f163c4a11628f55a4df523b3ef9060200160405180910390a35050565b634e487b7160e01b600052604160045260246000fd5b600181811c90821680620002ee57607f821691505b6020821081036200030f57634e487b7160e01b600052602260045260246000fd5b50919050565b601f82111562000365576000816000526020600020601f850160051c81016020861015620003405750805b601f850160051c820191505b8181101562000361578281556001016200034c565b5050505b505050565b81516001600160401b03811115620003865762000386620002c3565b6200039e81620003978454620002d9565b8462000315565b602080601f831160018114620003d65760008415620003bd5750858301515b600019600386901b1c1916600185901b17855562000361565b600085815260208120601f198616915b828110156200040757888601518255948401946001909101908401620003e6565b5085821015620004265787850151600019600388901b60f8161c191681555b5050505050600190811b01905550565b634e487b7160e01b600052601160045260246000fd5b600181815b808511156200048d57816000190482111562000471576200047162000436565b808516156200047f57918102915b93841c939080029062000451565b509250929050565b600082620004a65750600162000545565b81620004b55750600062000545565b8160018114620004ce5760028114620004d957620004f9565b600191505062000545565b60ff841115620004ed57620004ed62000436565b50506001821b62000545565b5060208310610133831016604e8410600b84101617156200051e575081810a62000545565b6200052a83836200044c565b806000190482111562000541576200054162000436565b0290505b92915050565b60006200055c60ff84168362000495565b9392505050565b808202811582820484141762000545576200054562000436565b8082018082111562000545576200054562000436565b610dbd80620005a36000396000f3fe608060405234801561001057600080fd5b50600436106101215760003560e01c806370a08231116100ad578063a9059cbb11610071578063a9059cbb1461023e578063b61d43b114610251578063b753bfe914610259578063dd62ed3e14610261578063f2fde38b1461029a57600080fd5b806370a08231146101d7578063715018a6146102005780638da5cb5b1461020857806395d89b4114610223578063a457c2d71461022b57600080fd5b806323b872dd116100f457806323b872dd14610185578063313ce5671461019857806331486dea146101a757806339509351146101af57806342966c68146101c257600080fd5b806306fdde0314610126578063095ea7b3146101445780630c900e901461016757806318160ddd1461017d575b600080fd5b61012e6102ad565b60405161013b9190610ac8565b60405180910390f35b610157610152366004610b33565b61033f565b604051901515815260200161013b565b61016f610356565b60405190815260200161013b565b60035461016f565b610157610193366004610b5d565b610374565b6040516012815260200161013b565b61016f610423565b6101576101bd366004610b33565b61043e565b6101d56101d0366004610b99565b61047a565b005b61016f6101e5366004610bb2565b6001600160a01b031660009081526001602052604090205490565b6101d5610487565b6000546040516001600160a01b03909116815260200161013b565b61012e61049b565b610157610239366004610b33565b6104aa565b61015761024c366004610b33565b610543565b61016f610550565b61016f61056b565b61016f61026f366004610bd4565b6001600160a01b03918216600090815260026020908152604080832093909416825291909152205490565b6101d56102a8366004610bb2565b610586565b6060600480546102bc90610c07565b80601f01602080910402602001604051908101604052809291908181526020018280546102e890610c07565b80156103355780601f1061030a57610100808354040283529160200191610335565b820191906000526020600020905b81548152906001019060200180831161031857829003601f168201915b5050505050905090565b600061034c3384846105c1565b5060015b92915050565b6103626012600a610d3b565b6103719064104c533c00610d4a565b81565b60006103818484846106e6565b6001600160a01b03841660009081526002602090815260408083203384529091529020548281101561040b5760405162461bcd60e51b815260206004820152602860248201527f45524332303a207472616e7366657220616d6f756e74206578636565647320616044820152676c6c6f77616e636560c01b60648201526084015b60405180910390fd5b61041885338584036105c1565b506001949350505050565b61042f6012600a610d3b565b610371906404e3b29200610d4a565b3360008181526002602090815260408083206001600160a01b0387168452909152812054909161034c918590610475908690610d61565b6105c1565b6104843382610905565b50565b61048f610a4b565b6104996000610a78565b565b6060600580546102bc90610c07565b3360009081526002602090815260408083206001600160a01b03861684529091528120548281101561052c5760405162461bcd60e51b815260206004820152602560248201527f45524332303a2064656372656173656420616c6c6f77616e63652062656c6f77604482015264207a65726f60d81b6064820152608401610402565b61053933858584036105c1565b5060019392505050565b600061034c3384846106e6565b61055c6012600a610d3b565b61037190640826299e00610d4a565b6105776012600a610d3b565b61037190640342770c00610d4a565b61058e610a4b565b6001600160a01b0381166105b857604051631e4fbdf760e01b815260006004820152602401610402565b61048481610a78565b6001600160a01b0383166106235760405162461bcd60e51b8152602060048201526024808201527f45524332303a20617070726f76652066726f6d20746865207a65726f206164646044820152637265737360e01b6064820152608401610402565b6001600160a01b0382166106845760405162461bcd60e51b815260206004820152602260248201527f45524332303a20617070726f766520746f20746865207a65726f206164647265604482015261737360f01b6064820152608401610402565b6001600160a01b0383811660008181526002602090815260408083209487168084529482529182902085905590518481527f8c5be1e5ebec7d5bd14f71427d1e84f3dd0314c0f7b2291e5b200ac8c7c3b92591015b60405180910390a3505050565b600081116107365760405162461bcd60e51b815260206004820152601b60248201527f45524332303a207472616e7366657220616d6f756e74207a65726f00000000006044820152606401610402565b6001600160a01b03831661079a5760405162461bcd60e51b815260206004820152602560248201527f45524332303a207472616e736665722066726f6d20746865207a65726f206164604482015264647265737360d81b6064820152608401610402565b6001600160a01b0382166107fc5760405162461bcd60e51b815260206004820152602360248201527f45524332303a207472616e7366657220746f20746865207a65726f206164647260448201526265737360e81b6064820152608401610402565b6001600160a01b038316600090815260016020526040902054818110156108745760405162461bcd60e51b815260206004820152602660248201527f45524332303a207472616e7366657220616d6f756e7420657863656564732062604482015265616c616e636560d01b6064820152608401610402565b6001600160a01b038085166000908152600160205260408082208585039055918516815290812080548492906108ab908490610d61565b92505081905550826001600160a01b0316846001600160a01b03167fddf252ad1be2c89b69c2b068fc378daa952ba7f163c4a11628f55a4df523b3ef846040516108f791815260200190565b60405180910390a350505050565b6001600160a01b0382166109655760405162461bcd60e51b815260206004820152602160248201527f45524332303a206275726e2066726f6d20746865207a65726f206164647265736044820152607360f81b6064820152608401610402565b6001600160a01b038216600090815260016020526040902054818110156109d95760405162461bcd60e51b815260206004820152602260248201527f45524332303a206275726e20616d6f756e7420657863656564732062616c616e604482015261636560f01b6064820152608401610402565b6001600160a01b0383166000908152600160205260408120838303905560038054849290610a08908490610d74565b90915550506040518281526000906001600160a01b038516907fddf252ad1be2c89b69c2b068fc378daa952ba7f163c4a11628f55a4df523b3ef906020016106d9565b6000546001600160a01b031633146104995760405163118cdaa760e01b8152336004820152602401610402565b600080546001600160a01b038381166001600160a01b0319831681178455604051919092169283917f8be0079c531659141344cd1fd0a4f28419497f9722a3daafe3b4186f6b6457e09190a35050565b60006020808352835180602085015260005b81811015610af657858101830151858201604001528201610ada565b506000604082860101526040601f19601f8301168501019250505092915050565b80356001600160a01b0381168114610b2e57600080fd5b919050565b60008060408385031215610b4657600080fd5b610b4f83610b17565b946020939093013593505050565b600080600060608486031215610b7257600080fd5b610b7b84610b17565b9250610b8960208501610b17565b9150604084013590509250925092565b600060208284031215610bab57600080fd5b5035919050565b600060208284031215610bc457600080fd5b610bcd82610b17565b9392505050565b60008060408385031215610be757600080fd5b610bf083610b17565b9150610bfe60208401610b17565b90509250929050565b600181811c90821680610c1b57607f821691505b602082108103610c3b57634e487b7160e01b600052602260045260246000fd5b50919050565b634e487b7160e01b600052601160045260246000fd5b600181815b80851115610c92578160001904821115610c7857610c78610c41565b80851615610c8557918102915b93841c9390800290610c5c565b509250929050565b600082610ca957506001610350565b81610cb657506000610350565b8160018114610ccc5760028114610cd657610cf2565b6001915050610350565b60ff841115610ce757610ce7610c41565b50506001821b610350565b5060208310610133831016604e8410600b8410161715610d15575081810a610350565b610d1f8383610c57565b8060001904821115610d3357610d33610c41565b029392505050565b6000610bcd60ff841683610c9a565b808202811582820484141761035057610350610c41565b8082018082111561035057610350610c41565b8181038181111561035057610350610c4156fea26469706673582212202603046788cc0ee34386c4ef9d8892c68ae957e59ccb33bfa05b8b121ceec3f664736f6c63430008180033",
  "linkReferences": {},
  "deployedLinkReferences": {}
}